S00F0000526F626F5761792E7372656352
S11300000C9434000C9449000C9449000C9449005D
S11300100C9449000C9449000C9449000C94490038
S11300200C9449000C9449000C9449000C94490028
S11300300C9449000C9449000C9449000C94490018
S11300400C9449000C9449000C9449000C94490008
S11300500C9449000C9449000C9449000C944900F8
S11300600C9449000C94490011241FBECFEFD8E032
S1130070DEBFCDBF11E0A0E0B1E0EEE5F4E002C0E8
S113008005900D92A239B107D9F70E941F010C9473
S11300902D020C940000CF93C62F0E94C800882321
S11300A071F08CE20E94F400882359F08C2F0E9496
S11300B0F400882341F00E94BF0081E005C080E085
S11300C003C080E001C080E0CF910895DF92EF92F9
S11300D0FF920F931F93CF93DF93D82E7B018A0156
S11300E0E9010E94C80082E30E94F400811106C065
S11300F080E091E00E94FC0180E023C08D2D8F5FA1
S11301000E94C8000E940901F701808311820E94A5
S11301100901F701108281830E940901F80180839B
S113012011820E940901F801108281830E94090151
S1130130888319820E941401188289830E94BF0057
S113014081E0DF91CF911F910F91FF90EF90DF90AD
S113015008959B01AC011092B90060E074E284EF51
S113016090E00E940B02DA01C9014097A109B1098C
S1130170B695A795979587958093B800089584E9D7
S11301808093BC00ECEBF0E0808184FDFDCF08950A
S113019094EA9093BC00ECEBF0E090819923ECF7A7
S11301A09091B900987F983031F0903121F00E94FD
S11301B0BF0080E008958093BB0084E88093BC0076
S11301C0ECEBF0E080818823ECF78091B900887F24
S11301D0883131F0803431F00E94BF0080E008950E
S11301E081E0089581E008958093BB0084E88093C2
S11301F0BC00ECEBF0E080818823ECF78091B9003F
S1130200887F883221F00E94BF0080E0089581E059
S1130210089584EC8093BC00ECEBF0E080818823AB
S1130220ECF78091BB00089584E88093BC00ECEB6C
S1130230F0E080818823ECF78091BB0008950E9450
S11302402F010E945301FFCF8AB18C6F8AB983EAD0
S113025084BD81E085BD16BC18BC17BC08950E94FE
S1130260240160E87AE186E090E00E94A9006CE055
S113027085EE0E944B00811104C087E291E00E9448
S1130280FC0160E875E280E090E00E94EB01529A84
S113029081E491E00E94FC018FE39CE90197F1F76E
S11302A000C000000895CF93DF9300D000D000D0A9
S11302B0CDB7DEB784E190E09A8389831C821B82E8
S11302C01E821D8287E491E00E94FC019E012B5F47
S11302D03F4FAE014D5F5F4FBE016F5F7F4F85EEB5
S11302E00E946600811105C08EE591E00E94FC0128
S11302F005C05A9A8CE791E00E94FC0189810E9412
S1130300F4012FEF81EE94E0215080409040E1F71A
S113031000C00000F6CFCF92DF92EF92FF926B0104
S11303207C01DC01CB01880F991FAA1FBB1F880F1A
S1130330991FAA1FBB1F9C01AD01220F331F441F2D
S1130340551F220F331F441F551F60E074E284EFD2
S113035090E00E940B02DA01C9010197A109B109D9
S11303608F319105A105B10560F0892F9A2FAB2F2C
S1130370BB278093C50021502093C4001092C00075
S113038025C0CC0CDD1CEE1CFF1CCC0CDD1CEE1CB3
S1130390FF1CA7019601220F331F441F551F60E065
S11303A074E284EF90E00E940B02DA01C901019724
S11303B0A109B109892F9A2FAB2FBB278093C500C0
S11303C021502093C40082E08093C000FF90EF90FE
S11303D0DF90CF9008950E948B0188E98093C1003B
S11303E086E08093C2000895E0ECF0E0908195FFF0
S11303F0FDCF8093C6000895CF93DF93EC018881ED
S1130400882331F021960E94F40189918111FBCF58
S1130410DF91CF910895A1E21A2EAA1BBB1BFD0107
S11304200DC0AA1FBB1FEE1FFF1FA217B307E407CF
S1130430F50720F0A21BB30BE40BF50B661F771F27
S1130440881F991F1A9469F7609570958095909507
S11104509B01AC01BD01CF010895F894FFCFCC
S113045E4665686C657220626569206164786C33E8
S113046E3534476574416363656C282920693263AA
S113047E57726974650A004665686C657220626518
S113048E69206164786C333534496E697428290A9D
S113049E00696E69740A00566F72206164786C3359
S11304AE3534476574416363656C28290A004665D3
S11304BE686C657220626569206164786C333534CA
S11304CE476574416363656C28290A006164786C1E
S11304DE333534476574416363656C2829204F4B6B
S10504EE0A00FE
S9030000FC
