:100000000C944B000C9468000C9468000C946800ED
:100010000C9468000C9468000C9468000C946800C0
:100020000C9468000C948D040C9468000C94680087
:100030000C9468000C9468000C9468000C946800A0
:100040000C9468000C9468000C9468000C94680090
:100050000C9468000C9468000C9468000C94680080
:100060000C9468000C946800084AD73B3BCE016EA4
:1000700084BCBFFDC12F3D6C74319ABD56833DDAFF
:100080003D00C77F11BED9E4BB4C3E916BAAAABE0E
:10009000000000803F0011241FBECFEFD8E0DEBF7C
:1000A000CDBF11E0A0E0B1E0E8EAF1E102C00590C7
:1000B0000D92A230B107D9F721E0A2E0B1E001C072
:1000C0001D92A433B207E1F70E94FF050C94D208F9
:1000D0000C940000CF93DF93D62FC82FCC0F8C2F1A
:1000E0000E942C02811102C080E014C08DE20E94A7
:1000F000500288E20E9450028C2F0E942C0288231A
:1001000099F38CE20E9450028D2F0E9450020E94AF
:10011000240281E0DF91CF9108951F93CF93DF9365
:100120001F92CDB7DEB7142F880F69830E942C026F
:100130006981811102C080E00DC0862F0E945002AB
:100140008823C9F3812F0E9450028823A1F30E94C3
:10015000240281E00F90DF91CF911F910895CF92FB
:10016000DF92EF92FF920F931F93CF93DF93D82EDE
:100170007B018A01E901880F0E942C02811102C0D3
:1001800080E03BC082E30E9450028823C9F38D2D9A
:10019000880F81600E942C020E946402C82ED12C1C
:1001A000D701CD92DC920E946402F82FE0E0EC29A6
:1001B000FD29D701ED93FC930E946402E82EF12CF7
:1001C000F801F182E0820E946402782F60E06E29DB
:1001D0007F29D8016D937C930E946402082F10E060
:1001E000198308830E946E02582F40E0402B512B48
:1001F000598348830E94240281E0DF91CF911F91AF
:100200000F91FF90EF90DF90CF900895EF92FF92C3
:100210000F931F93CF93DF931F92CDB7DEB7182FA5
:100220007A01880F69830E942C026981811102C0C2
:1002300080E01DC0862F0E9450028823C9F3812FC1
:10024000880F81600E942C020E946402082F10E037
:10025000F701118300830E946E02382F20E0202BCB
:10026000312BF701318320830E94240281E00F901B
:10027000DF91CF911F910F91FF90EF9008958F9292
:100280009F92AF92BF92CF92DF92EF92FF920F9325
:100290001F93CF93DF934B015C016901D42FC52FCE
:1002A000CE013D2D492F582F682D792D8A2D9B2D5C
:1002B0000E94CB0687FD13C02E2D3F2D402F512FBE
:1002C000682D792D8A2D9B2D0E943F08181624F445
:1002D0006701D02FC12F03C06401DA2DCB2D9E0101
:1002E0006C2D7D2D832F9C2FDF91CF911F910F912E
:1002F000FF90EF90DF90CF90BF90AF909F908F9046
:100300000895CF92DF92EF92FF920F931F93F60121
:1003100060837183828393832483358346835783E9
:10032000E486F5860687178710861186128613865F
:100330001F910F91FF90EF90DF90CF9008958F92D3
:100340009F92AF92BF92CF92DF92EF92FF920F9364
:100350001F93CF93DF9369017A01E8012C853D85D6
:100360004E855F850E944A08288539854A855B85C8
:100370000E940506288139814A815B810E944A08D2
:100380004B015C012C813D814E815F81C701B6012B
:100390000E944A089B01AC01C501B4010E940506F8
:1003A0009B01462F532F682F792F488759876A87DB
:1003B0007B87622F732FDF91CF911F910F91FF9059
:1003C000EF90DF90CF90BF90AF909F908F90089567
:1003D0009B01AC0160E074E284EF90E00E94B00801
:1003E000205131094109510956954795379527956F
:1003F0002093B8001092B900089524EA34E844E943
:100400002093BC009091BC0097FFFCCF9091B90065
:10041000987F983011F0903199F78093BB0030931A
:10042000BC009091BC0097FFFCCF9091B900987FE1
:10043000903211F0983539F44093BC009091BC0093
:1004400094FDFCCFDDCF089584E98093BC008091BA
:10045000BC0084FDFCCF089594EA9093BC00909179
:10046000BC0097FFFCCF9091B900987F983031F095
:10047000903121F00E94240280E008958093BB0017
:1004800084E88093BC008091BC0087FFFCCF809102
:10049000B900887F883111F0803461F781E00895D8
:1004A0008093BB0084E88093BC008091BC0087FFF0
:1004B000FCCF8091B900887F883221F00E9424020D
:1004C00080E0089581E0089584EC8093BC008091E1
:1004D000BC0087FFFCCF8091BB00089584E8809327
:1004E000BC008091BC0087FFFCCF8091BB000895C9
:1004F000CF93DF93D62FC82FCC0F8C2F0E942C02C6
:10050000811102C080E015C080E20E9450028D2F50
:100510008F600E9450028C2F0E942C02882391F33E
:1005200081E20E94500280E00E9450020E94240258
:1005300081E0DF91CF9108951F93CF93DF931F92B6
:10054000CDB7DEB7182F880F69830E942C0269810E
:10055000811102C080E010C0862F0E945002812FBE
:10056000880F81600E942C028823A1F30E946E02F2
:1005700089830E94240289810F90DF91CF911F917E
:1005800008950F931F93CF93DF931F92CDB7DEB7DC
:10059000042F182F110F812F69830E942C0269816B
:1005A000811102C080E00EC0862F0E945002812F70
:1005B0000E942C028823B1F3802F0E9450020E94D7
:1005C000240281E00F90DF91CF911F910F91089548
:1005D000EF92FF920F931F93CF93DF93C82FF62EC6
:1005E0008A01E82EEE0C8E2D0E942C02811102C091
:1005F00080E02EC08F2D0E945002D0E0CC0FDD1F76
:10060000C1608C2F0E942C02882391F30E946E02FD
:10061000F801808311828E2D0E942C02882341F3E1
:100620008F2D8F5F0E9450028C2F0E942C028823F6
:10063000F9F2F801C081D1810E946E02382F20E0CA
:100640002C2B3D2BF801318320830E94240281E072
:10065000DF91CF911F910F91FF90EF900895CF926E
:10066000DF92EF92FF920F931F93CF93DF93D82ED9
:100670007B018A01E901880F0E942C02811102C0CE
:1006800080E03BC088E20E9450028D2D880F81607F
:100690000E942C028823A1F30E946402C82ED12C50
:1006A000D701CD92DC920E946402F82FE0E0EC29A1
:1006B000FD29D701ED93FC930E946402E82EF12CF2
:1006C000F801F182E0820E946402782F60E06E29D6
:1006D0007F29D8016D937C930E946402082F10E05B
:1006E000198308830E946E02582F40E0402B512B43
:1006F000598348830E94240281E0DF91CF911F91AA
:100700000F91FF90EF90DF90CF9008958AB18C6F9A
:100710008AB983EA84BD81E085BD16BC18BC17BCCC
:10072000089588BD811103C08BB18C608BB9089589
:1007300087BD811103C08BB180698BB908955F9823
:100740005C9A08955C985F9A08955B985A9A089508
:100750005A985B9A0895AF92BF92CF92DF92EF9230
:10076000FF920F931F93CF93DF93CDB7DEB7ED8941
:10077000FE896083718382839383248335834683D8
:100780005783E086F18602871387A486B586C686DE
:10079000D7868D859E85AF85B889808B918BA28BFE
:1007A000B38B89899A89AB89BC89848B958BA68BFD
:1007B000B78B108E118E128E138E148E158E168E90
:1007C000178EDF91CF911F910F91FF90EF90DF90E7
:1007D000CF90BF90AF9008952F923F924F925F922B
:1007E0006F927F928F929F92AF92BF92CF92DF9241
:1007F000EF92FF920F931F93CF93DF93CDB7DEB7A6
:1008000027970FB6F894DEBF0FBECDBF1F830E83B0
:100810000E940406562E672E782E492EF801248158
:100820003581468157810E944A08362E272E8983BA
:100830009D83F8012085318542855385652D762D70
:10084000872D942D0E944A08F801248D358D468D00
:10085000578D0E940506E12CF12C08E413E420E0FA
:1008600030E048E453EC0E943F019B01AC01EE8173
:10087000FF81648F758F868F978FC488D588E688AF
:10088000F78880889188A288B388D101E9811D8189
:100890006B2F7A2F8E2F912F0E94050669837A8302
:1008A0008B839C83EE81FF81208D318D428D538D12
:1008B000652D762D872D942D0E940406EE81FF81F3
:1008C00024853585468557850E944A089B01AC01E1
:1008D00069817A818B819C810E940506870176015E
:1008E000A50194010E943F0127960FB6F894DEBF40
:1008F0000FBECDBFDF91CF911F910F91FF90EF9071
:10090000DF90CF90BF90AF909F908F907F906F902F
:100910005F904F903F902F9008951F920F920FB6C7
:100920000F9211242F938F939F93809102019091A6
:100930000301863321E0920730F40196909303017E
:100940008093020107C081E08093000110920301AF
:10095000109202019F918F912F910F900FBE0F90D7
:100960001F901895AF92BF92CF92DF92EF92FF92B5
:100970000F931F932FEF80E792E02150804090402B
:10098000E1F700C000000E94860360E47CE980E09B
:1009900090E00E94E8016CE083E50E946A0060E854
:1009A00089E60E94780240E363E289E60E94C10280
:1009B00084E091E09F938F9383E48F938FE78F93ED
:1009C0001F921F9293EC9F938F931F921F9286EA20
:1009D000A82E8BE9B82E84ECC82E8BE3D82E1FE806
:1009E000E12E12ECF12E05EF1CE32BE734E14EEE85
:1009F0005FE360E070E080E89FE30E94AB0324E2E5
:100A0000C22E21E0D22E17EFE12E14EEF12E01EAD4
:100A10001BE32AE037ED43EA5CE368E471EE8AE722
:100A20009FE30E94810181E08093B1008093700078
:100A30001092B20084B1806384B978948DB79EB768
:100A40000A960FB6F8949EBF0FBE8DBF1F910F91EF
:100A5000FF90EF90DF90CF90BF90AF900895CF932D
:100A6000DF93CDB7DEB72E970FB6F894DEBF0FBE7B
:100A7000CDBF1A86198618861F821E821D8280E0CD
:100A800090E8A9EBB2E489839A83AB83BC836E01BF
:100A900089E0C80ED11CA60164E383E50E9406012B
:100AA0007E0187E0E80EF11CA70166E383E50E9462
:100AB00006018E010B5F1F4FA80168E289E60E94C4
:100AC000E802BC2CAD2C9E2C8F2C702E612E8091B8
:100AD00000018130E1F74B2D5A2D64E383E50E943C
:100AE0000601492D582D66E383E50E940601472D36
:100AF000562D68E289E60E94E8026F817885882792
:100B000077FD8095982F0E946A079B01AC0169854B
:100B10007A85882777FD8095982F2B873C874D878E
:100B20005E870E946A072B853C854D855E850E9405
:100B3000780621EE3EE245E652E40E944A088B0127
:100B40009C0168017901F7FAF094F7F8F0946D814F
:100B50007E81719561957109882777FD8095982F21
:100B60000E946A0725E733E944E651E40E94CF0674
:100B700004E211E0A70196010E949F016B017C0134
:100B800020E030E04CE552E40E94CB0687FD0AC02D
:100B900020E030E047E053E4C701B6010E943F087F
:100BA00018162CF485B18F7C85B910E01FC06981BF
:100BB0007A818B819C8104E011E0A70196010E945B
:100BC000EC030E943707162F67FF08C00E94A50399
:100BD0000E949F0311952C9A2D9808C0662331F02E
:100BE0000E94A8030E94A2032D9A2C98812F0E9494
:100BF0009803812F0E9491031092000168CF0E94F8
:100C0000B2040E942F05FFCF5058BB27AA270ED051
:100C1000FCC1EDD130F0F2D120F031F49F3F11F45E
:100C20001EF4BDC10EF4E095E7FBB3C1E92FFED180
:100C300080F3BA17620773078407950718F071F4F9
:100C40009EF516C20EF4E0950B2EBA2FA02D0B01C7
:100C5000B90190010C01CA01A0011124FF27591B01
:100C600099F0593F50F4503E68F11A16F040A22F07
:100C7000232F342F4427585FF3CF46953795279578
:100C8000A795F0405395C9F77EF41F16BA0B620B77
:100C9000730B840BBAF09150A1F0FF0FBB1F661FBE
:100CA000771F881FC2F70EC0BA0F621F731F841F01
:100CB00048F4879577956795B795F7959E3F08F027
:100CC000B3CF9395880F08F09927EE0F97958795E6
:100CD00008958DD158F080E891E009F49EEF8ED10F
:100CE00028F040E851E059F45EEF09C058C1C0C196
:100CF000E92FE0789BD168F3092E052AC1F3261766
:100D000037074807590738F00E2E07F8E02569F035
:100D1000E025E0640AC0EF6307F8009407FADB01FE
:100D2000B9019D01DC01CA01AD01EF9347D06DD13E
:100D30000AD05F91552331F02BED3FE049E450FD9F
:100D400049EC63CF0895DF93DD27B92FBF7740E8E3
:100D50005FE31616170648075B0710F4D92F93D1E7
:100D60009F938F937F936F93F8D1E8E6F0E01AD1C9
:100D70004CD12F913F914F915F9198D1DD2349F054
:100D80009058A2EA2AED3FE049EC5FE3D0785D2776
:100D90004DDFDF913AC1D9D008F481E008950CD03D
:100DA00034C12CD140F023D130F021F45F3F19F051
:100DB000F0C051115EC1F3C039D198F39923C9F342
:100DC0005523B1F3951B550BBB27AA276217730751
:100DD000840738F09F5F5F4F220F331F441FAA1F05
:100DE000A9F333D00E2E3AF0E0E830D091505040C5
:100DF000E695001CCAF729D0FE2F27D0660F771F73
:100E0000881FBB1F261737074807AB07B0E809F054
:100E1000BB0B802DBF01FF2793585F4F2AF09E3FE9
:100E2000510568F0B6C025C15F3FECF3983EDCF396
:100E3000869577956795B795F7959F5FC9F7880F62
:100E4000911D9695879597F90895E1E0660F771FB4
:100E5000881FBB1F621773078407BA0720F0621B45
:100E6000730B840BBA0BEE1F88F7E095089504D03E
:100E70006894B111FEC00895E1D088F09F5790F0BA
:100E8000B92F9927B751A0F0D1F0660F771F881FAF
:100E9000991F1AF0BA95C9F712C0B13081F0E8D0A5
:100EA000B1E00895E5C0672F782F8827B85F39F043
:100EB000B93FCCF3869577956795B395D9F73EF40E
:100EC00090958095709561957F4F8F4F9F4F0895B6
:100ED000E89409C097FB3EF49095809570956195D4
:100EE0007F4F8F4F9F4F9923A9F0F92F96E9BB278A
:100EF0009395F695879577956795B795F111F8CF06
:100F0000FAF4BB0F11F460FF1BC06F5F7F4F8F4F70
:100F10009F4F16C0882311F096E911C0772321F066
:100F20009EE8872F762F05C0662371F096E8862FFE
:100F300070E060E02AF09A95660F771F881FDAF755
:100F4000880F9695879597F90895990F0008550F82
:100F5000AA0BE0E8FEEF16161706E807F907C0F03F
:100F600012161306E407F50798F0621B730B840B47
:100F7000950B39F40A2661F0232B242B252B21F421
:100F800008950A2609F4A140A6958FEF811D811DC1
:100F9000089597F99F6780E870E060E008959FEFFB
:100FA00080EC0895DF93CF931F930F93FF92EF92FE
:100FB000DF927B018C01689405C0DA2EEF0176D0B8
:100FC000FE01E894A5912591359145915591AEF397
:100FD000EF012CDEFE019701A801DA9479F7DF908A
:100FE000EF90FF900F911F91CF91DF910895002412
:100FF0000A941616170618060906089500240A947E
:1010000012161306140605060895092E0394000C03
:1010100011F4882352F0BB0F40F4BF2B11F460FF92
:1010200004C06F5F7F4F8F4F9F4F089557FD9058BB
:10103000440F551F59F05F3F71F04795880F97FB9C
:10104000991F61F09F3F79F0879508951216130656
:101050001406551FF2CF4695F1DF08C01616170685
:101060001806991FF1CF86957105610508940895BA
:10107000E894BB2766277727CB0197F9089565DFAA
:1010800008F48FEF08959B01AC0160E070E080E808
:101090009FE385CE0BD0B9CFAADF28F0AFDF18F0E1
:1010A000952309F076CF7BCF1124E3CFBFDFA0F3E8
:1010B000959FD1F3950F50E0551F629FF001729FED
:1010C000BB27F00DB11D639FAA27F00DB11DAA1F0C
:1010D000649F6627B00DA11D661F829F2227B00D59
:1010E000A11D621F739FB00DA11D621F839FA00DE4
:1010F000611D221F749F3327A00D611D231F849F34
:10110000600D211D822F762F6A2F11249F5750408A
:101110008AF0E1F088234AF0EE0FFF1FBB1F661F25
:10112000771F881F91505040A9F79E3F510570F0DE
:1011300030CF9FCF5F3FECF3983EDCF386957795F9
:101140006795B795F795E7959F5FC1F7FE2B880FD9
:10115000911D9695879597F908959B01AC019ACFBB
:10116000A1E21A2EAA1BBB1BFD010DC0AA1FBB1FAB
:10117000EE1FFF1FA217B307E407F50720F0A21B1D
:10118000B30BE40BF50B661F771F881F991F1A948A
:1011900069F760957095809590959B01AC01BD01B4
:0811A000CF010895F894FFCF80
:0211A800010044
:00000001FF
