:100000000C9434000C9451000C9451000C94510049
:100010000C9451000C9451000C9451000C9451001C
:100020000C9451000C9438060C9451000C9451001F
:100030000C9451000C9451000C9451000C945100FC
:100040000C9451000C9451000C9451000C945100EC
:100050000C9451000C9451000C9451000C945100DC
:100060000C9451000C94510011241FBECFEFD8E026
:10007000DEBFCDBF11E0A0E0B1E0ECE0F4E102C0F2
:1000800005900D92A430B107D9F721E0A4E0B1E0CA
:1000900001C01D92A035B207E1F70E9463070C94DE
:1000A000040A0C940000CF93DF93D62FC82FCC0FF7
:1000B0008C2F0E944601811104C080E0DF91CF9116
:1000C00008958DE20E94A70188E20E94A7018C2F6B
:1000D0000E944601882389F38CE20E94A7018D2F9C
:1000E0000E94A7010E949F0181E0DF91CF910895B6
:1000F0001F93CF93DF931F92CDB7DEB7142F880FD6
:1001000069830E9446016981811106C080E00F90D9
:10011000DF91CF911F910895862F0E94A701882318
:10012000A9F3812F0E94A701882381F30E949F01D8
:1001300081E0EDCFCF92DF92EF92FF920F931F936A
:10014000CF93DF93D82E7B018A01E901880F0E94AB
:10015000460181110AC080E0DF91CF911F910F917C
:10016000FF90EF90DF90CF90089582E30E94A70167
:10017000882389F38D2D880F81600E9446010E949B
:10018000C001C82ED12CF701D182C0820E94C001CB
:10019000382F20E02C293D29F701318320830E944C
:1001A000C001E82EF12CF801F182E0820E94C0012A
:1001B000382F20E02E293F29F801318320830E9427
:1001C000C001082F10E0198308830E94CA01382F4C
:1001D00020E0202B312B398328830E949F0181E06E
:1001E000BBCFEF92FF920F931F93CF93DF931F929A
:1001F000CDB7DEB7182F7A01880F69830E944601B8
:100200006981811109C080E00F90DF91CF911F912A
:100210000F91FF90EF900895862F0E94A7018823E9
:1002200091F3812F880F81600E9446010E94C001D6
:10023000082F10E0F701118300830E94CA01382FB4
:1002400020E0202B312BF701318320830E949F0176
:1002500081E00F90DF91CF911F910F91FF90EF9070
:1002600008959B01AC0160E074E284EF90E00E948D
:100270009309205131094109510956954795379500
:1002800027952093B8001092B900089594EA9093AE
:10029000BC009091BC0097FFFCCF9091B900987F73
:1002A000983059F0903149F084E98093BC008091F6
:1002B000BC0084FDFCCF80E008958093BB0084E8FF
:1002C0008093BC008091BC0087FFFCCF8091B90077
:1002D000887F883159F0803449F084E98093BC00EC
:1002E0008091BC0084FDFCCF80E0089581E00895FA
:1002F00024EA34E844E92093BC009091BC0097FFC5
:10030000FCCF9091B900987F983011F0903199F717
:100310008093BB003093BC009091BC0097FFFCCF52
:100320009091B900987F903219F0983509F00895AE
:100330004093BC009091BC0094FDFCCFDCCF84E9DD
:100340008093BC008091BC0084FDFCCF0895809315
:10035000BB0084E88093BC008091BC0087FFFCCF89
:100360008091B900887F883249F084E98093BC008D
:100370008091BC0084FDFCCF80E0089581E0089569
:1003800084EC8093BC008091BC0087FFFCCF8091FF
:10039000BB00089584E88093BC008091BC0087FF77
:1003A000FCCF8091BB000895FC014FE652E163E869
:1003B0007AE3408351836283738346EA5BE964E4B2
:1003C0007BE344835583668377834FE852EC65EF84
:1003D0007CE340875187628773871486158616866B
:1003E0001786108A118A128A138A108E118E128E25
:1003F000138E148E158E168E178E10A211A212A2B5
:1004000013A214A215A216A217A208952F923F922A
:100410004F925F926F927F928F929F92AF92BF9214
:10042000CF92DF92EF92FF920F931F93CF93DF93C0
:10043000CDB7DEB7A1970FB6F894DEBF0FBECDBF24
:10044000688F798F8A8F9B8FCA01B9014701580144
:100450001601D60150962D913D914D915C91539787
:1004600029873A874B875C870E946807FB01462FE4
:100470005F2F682F792FD60154964D935D936D931E
:100480007C935797A8019701BF010E941C09F601B0
:1004900024853585468557850E9469076D877E8747
:1004A0008F87988BD60194964D905D906D907C903F
:1004B0009797A5019401C301B2010E941C096C8B9E
:1004C0007D8B182F092FD6015C962D913D914D9172
:1004D0005C915F9729833A834B835C839096CD90A0
:1004E000DD90ED90FC909397F8018F2F9E2F0E9446
:1004F0006807A70196010E946807F10120813181F8
:10050000428153810E946907A50194010E941C0940
:10051000D10158962D913D914D915C915B970E9430
:1005200069076D837E838F8398877C896D89C80175
:10053000272F362F492F582F69817A818B819C81F3
:100540000E9468076983798B8A8B9B8B7C896D8974
:10055000C801272F362F492F582FC701B6010E94F7
:1005600068076C8B7D8B8E8B9F8BF101248135818D
:1005700046815781C501B4010E941C099B01AC0151
:10058000C301B2010E9469076C8F7D8F8E8F9F8F90
:10059000D10118962D913D914D915C911B97BD8194
:1005A000AE81EF8118856B2F7A2F8E2F912F0E94AD
:1005B00069078B016C01862F912FAC2DBD2DF101A8
:1005C00084AB95ABA6ABB7AB202F312F4A2F5B2F57
:1005D000BD81AE81FF80E8846B2F7A2F8F2D9E2DF9
:1005E0000E94D1077B01582E492E9201862F9F2D04
:1005F000A32FB22FF10180A791A7A2A7B3A7202F05
:10060000312F4C2D5D2DBC89AD89EE891F896B2F53
:100610007A2F8E2F912F0E94D1078B0189A398A347
:10062000382F292F862F912FA32FB22FF10184A7C6
:1006300095A7A6A7B7A77D856E859F858889272F53
:10064000362F492F582F688D798D8A8D9B8D0E946A
:1006500068075B016C01562F4B2D862F9B2DAC2D0F
:10066000BD2DF10180AB91ABA2ABB3AB252F342FE5
:100670004A2F5B2FF2016E2D7F2D8F2F9E2F0E9410
:100680001C099B01AC01BD85AE859F8488886B2FBA
:100690007A2F892D982D0E9469073B014C01862FE6
:1006A000972DA82DB92DF10184879587A687B78747
:1006B0002A2D3B2D4C2D5D2DF9A1E8A1602F712F26
:1006C0008F2F9E2F0E941C099B01AC0169857A85A2
:1006D0008B859C850E946907D10150966D937D930F
:1006E0008D939C935397C2012E2D3F2D492F582F48
:1006F000BD81AE81DF80C8846B2F7A2F8D2D9C2D1C
:100700000E941C099B01AC01BD81AE816B2F7A2F29
:100710008D2D9C2D0E9468075B016C01862F9B2DFF
:10072000AC2DBD2DF101808F918FA28FB38FC201AF
:100730002E2D3F2D492F582FB981A989FA88EB8892
:100740006B2F7A2F8F2D9E2D0E941C099B01AC01CF
:10075000B981A9896B2F7A2F8F2D9E2D0E94680752
:100760002B017C01862F952DAE2DBF2DF101848F9D
:10077000958FA68FB78F2A2D3B2D4C2D5D2DF9A17E
:10078000E8A1602F712F8F2F9E2F0E941C099B01C3
:10079000AC01BC89AD89DE88CF886B2F7A2F8D2D77
:1007A0009C2D0E946807D10190966D937D938D9347
:1007B0009C939397242D352D4E2D5F2DF9A1E8A103
:1007C000602F712F8F2F9E2F0E941C099B01AC015F
:1007D000BC8DAD8DEE8D1F8D6B2F7A2F8E2F912FAF
:1007E0000E946807F10164A375A386A397A3662DF1
:1007F000772D882D992DA1960FB6F894DEBF0FBEE8
:10080000CDBFDF91CF911F910F91FF90EF90DF90BF
:10081000CF90BF90AF909F908F907F906F905F90A0
:100820004F903F902F900895CF93DF93D62FC82FEE
:10083000CC0F8C2F0E944601811104C080E0DF9113
:10084000CF91089580E20E94A7018D2F8F600E94B2
:10085000A7018C2F0E944601882381F381E20E9428
:10086000A70180E00E94A7018C2F0E9446018823E7
:1008700029F383E20E94A70180E30E94A7010E945E
:100880009F0181E0DCCF1F93CF93DF931F92CDB701
:10089000DEB7182F880F69830E9446016981811194
:1008A00006C080E00F90DF91CF911F910895862FB1
:1008B0000E94A701812F880F81600E944601882332
:1008C00081F30E94CA0189830E949F0189810F9050
:1008D000DF91CF911F910895AF92BF92DF92EF9277
:1008E000FF920F931F93CF93DF931F92CDB7DEB785
:1008F000A82EE62E8A01F82EFF0C8F2D0E944601AD
:1009000081110CC080E00F90DF91CF911F910F916A
:10091000FF90EF90DF90BF90AF9008958E2D0E94D2
:10092000A701B12CAA0CBB1C6894A0F88A2D0E94C8
:100930004601882339F30E94CA01D82E8F2D0E94C8
:1009400046018823F9F28E2D8F5F0E94A7018A2D20
:100950000E9446018823B1F20E94CA0189830E9445
:100960009F018981282F332727FD3095322F222799
:100970008D2D992787FD9095282B392BF8013183F0
:10098000208381E0C0CFCF92DF92EF92FF920F934E
:100990001F93CF93DF93D82E7B018A01E901880F43
:1009A0000E94460181110AC080E0DF91CF911F9122
:1009B0000F91FF90EF90DF90CF90089588E20E9412
:1009C000A7018D2D880F81600E944601882361F365
:1009D0000E94C001C82ED12CF701D182C0820E9492
:1009E000C001382F20E02C293D29F70131832083D5
:1009F0000E94C001E82EF12CF801F182E0820E94F1
:100A0000C001382F20E02E293F29F80131832083AF
:100A10000E94C001082F10E0198308830E94CA01B8
:100A2000382F20E0202B312B398328830E949F010F
:100A300081E0BBCF8AB18C6F8AB983EA84BD81E043
:100A400085BD16BC18BC17BC089588BD811103C0B4
:100A50008BB18C608BB9089587BD811103C08BB1B8
:100A600080698BB908955F985C9A08955C985F9A45
:100A700008955B985A9A08955A985B9A0895CF936F
:100A8000DF93FB01E9011A821B821C821D821982FD
:100A900018829F838E83798768875B874A87BC012A
:100AA0006F5F7F4F8FEF9FE70E947F097D876C8785
:100AB0009F012F5F3F4F442737FD4095542F6FEF25
:100AC0007FEF8FEF9FE30E94B5092E873F87488B0A
:100AD000598BDF91CF9108958F929F92AF92BF92E1
:100AE000CF92DF92EF92FF92CF93DF93EB01FA0167
:100AF0009C01261B370B84859585821793077CF014
:100B0000919581959109281739070CF098C0882490
:100B1000839490E8992EAA24AA94BA2C06C088241B
:100B20008A944FE7942EA12CB12C442737FD409591
:100B3000542F82819381A481B581280F391F4A1FC8
:100B40005B1FC684D784E088F188C216D306E4060A
:100B5000F5060CF055C0C282D382E482F5826FEFB5
:100B60007FEF8FEF9FE3208131812C1B3D0BA2850E
:100B7000B3852A9FA0012B9F500D3A9F500D112441
:100B8000D183C083DC01CB01880D991DAA1DBB1D3B
:100B9000662757FD6095762F840F951FA61FB71FF8
:100BA000B7FD5BC0AC01BD0187E0759567955795B2
:100BB00047958A95D1F7CA01DB01813020E8920779
:100BC0002FEFA207B20724F481E090E8AFEFBFEF68
:100BD000AC01BD01411580E858076105710524F09D
:100BE0004FEF5FE760E070E0CA01DF91CF91FF90C7
:100BF000EF90DF90CF90BF90AF909F908F9008952F
:100C0000F094E094D094C094C11CD11CE11CF11C60
:100C10002C153D054E055F054CF4C282D382E4825B
:100C2000F58261E070E080E090EC9DCF2283338319
:100C300044835583A085B1850E94D10994CF8681D4
:100C40009781289F4001299F900C389F900C112478
:100C5000AA2497FCA094BA2C68CF81589F4FAF4F1D
:100C6000BF4FA0CFFC011282138214821582089517
:100C70001F920F920FB60F9211242F933F938F93D1
:100C80009F93809104019091050120910001309182
:100C900001018217930780F081E080930201109296
:100CA0000501109204019F918F913F912F910F9018
:100CB0000FBE0F901F901895019690930501809399
:100CC0000401F1CF2FEF80E792E021508040904067
:100CD000E1F700C000000E941A0560E47CE980E0B2
:100CE00090E00E9431016CE083E50E94530060E8CF
:100CF00089E60E9414042EE331E04CE250E066EEF7
:100D000070E080EC90E00E943F0586E091E00E9458
:100D1000D40181E08093B100809370001092B20002
:100D20002FEF81EE94E0215080409040E1F700C029
:100D3000000040E060E283E50E94780084B18063B7
:100D400084B92B9A2FEF81EE94E02150804090409F
:100D5000E1F700C0000078940895CF93DF9300D0AE
:100D600000D01F92CDB7DEB71C821B821A82198277
:100D7000809102018130E1F7AE014D5F5F4F66E384
:100D800083E50E94F100AE014F5F5F4F68E289E6A4
:100D90000E946C048B819C8197FD82C02D982C9AB7
:100DA0000E9433050E9439056B817C81693C710585
:100DB0000CF06FC0882777FD8095982F0E946C08F3
:100DC00020E030EC4FE754E40E94D10720E030E00F
:100DD00044E353E40E941C094B015C0169817A8160
:100DE000882777FD8095982F0E946C0820E030E0DE
:100DF00046E651E40E94D1079B01AC0186E0C82E73
:100E000081E0D82E17E1E12E17EBF12E01ED18E36A
:100E1000682D792D8A2D9B2D0E9406020E9439088B
:100E20004EE351E080E090E00E946C05BC01882711
:100E300077FD8095982F0E946C08B62FA72F462F1C
:100E4000572F682F792F4A015B0120E030E0A9017C
:100E50006B2F7A2F0E94CD0787FD30C020E030E055
:100E60004FE753E4C501B4010E941C0920E03EEFA6
:100E70004FEF56E40E94D1070E943E08862F6D83F3
:100E80000E9425056D81862F0E942C05109202017B
:100E90006FCF80E00E94250580E00E942C0568CF7E
:100EA0002D9A2C980E9436050E943C056B817C810E
:100EB0007195619571097C836B8378CFB7FAB09493
:100EC000B7F8B094CBCF0E9462060E94AD06FFCF68
:100ED0005058BB27AA270ED075C166D130F06BD110
:100EE00020F031F49F3F11F41EF45BC10EF4E09545
:100EF000E7FB51C1E92F77D180F3BA176207730777
:100F00008407950718F071F49EF58FC10EF4E095F3
:100F10000B2EBA2FA02D0B01B90190010C01CA01B3
:100F2000A0011124FF27591B99F0593F50F4503E5E
:100F300068F11A16F040A22F232F342F4427585F50
:100F4000F3CF469537952795A795F0405395C9F768
:100F50007EF41F16BA0B620B730B840BBAF0915020
:100F6000A1F0FF0FBB1F661F771F881FC2F70EC0BF
:100F7000BA0F621F731F841F48F487957795679592
:100F8000B795F7959E3F08F0B3CF9395880F08F07B
:100F90009927EE0F979587950895D9D008F481E0A9
:100FA00008950CD00FC107D140F0FED030F021F4ED
:100FB0005F3F19F0F0C0511139C1F3C014D198F35B
:100FC0009923C9F35523B1F3951B550BBB27AA27CA
:100FD00062177307840738F09F5F5F4F220F331F3C
:100FE000441FAA1FA9F333D00E2E3AF0E0E830D008
:100FF00091505040E695001CCAF729D0FE2F27D00B
:10100000660F771F881FBB1F261737074807AB07D8
:10101000B0E809F0BB0B802DBF01FF2793585F4F4D
:101020002AF09E3F510568F0B6C000C15F3FECF367
:10103000983EDCF3869577956795B795F7959F5F12
:10104000C9F7880F911D9695879597F90895E1E066
:10105000660F771F881FBB1F621773078407BA07C5
:1010600020F0621B730B840BBA0BEE1F88F7E09520
:10107000089504D06894B111D9C00895BCD088F007
:101080009F5790F0B92F9927B751A0F0D1F0660F74
:10109000771F881F991F1AF0BA95C9F712C0B1308F
:1010A00081F0C3D0B1E00895C0C0672F782F8827A2
:1010B000B85F39F0B93FCCF3869577956795B395CE
:1010C000D9F73EF490958095709561957F4F8F4F3D
:1010D0009F4F0895E89409C097FB3EF49095809542
:1010E000709561957F4F8F4F9F4F9923A9F0F92FEE
:1010F00096E9BB279395F695879577956795B7956C
:10110000F111F8CFFAF4BB0F11F460FF1BC06F5F51
:101110007F4F8F4F9F4F16C0882311F096E911C063
:10112000772321F09EE8872F762F05C0662371F084
:1011300096E8862F70E060E02AF09A95660F771F98
:10114000881FDAF7880F9695879597F90895990F74
:101150000008550FAA0BE0E8FEEF16161706E80781
:10116000F907C0F012161306E407F50798F0621BA2
:10117000730B840B950B39F40A2661F0232B242B77
:10118000252B21F408950A2609F4A140A6958FEF96
:10119000811D811D089597F99F6780E870E060E0E8
:1011A00008959FEF80EC089500240A941616170600
:1011B00018060906089500240A9412161306140648
:1011C00005060895092E0394000C11F4882352F0AB
:1011D000BB0F40F4BF2B11F460FF04C06F5F7F4F63
:1011E0008F4F9F4F089557FD9058440F551F59F04A
:1011F0005F3F71F04795880F97FB991F61F09F3F04
:1012000079F087950895121613061406551FF2CF2C
:101210004695F1DF08C0161617061806991FF1CF7C
:1012200086957105610508940895E894BB276627A3
:101230007727CB0197F908950BD0C4CFB5DF28F0FD
:10124000BADF18F0952309F0A6CFABCF1124EECF6B
:10125000CADFA0F3959FD1F3950F50E0551F629F11
:10126000F001729FBB27F00DB11D639FAA27F00DFF
:10127000B11DAA1F649F6627B00DA11D661F829F26
:101280002227B00DA11D621F739FB00DA11D621F0B
:10129000839FA00D611D221F749F3327A00D611D28
:1012A000231F849F600D211D822F762F6A2F11240A
:1012B0009F5750408AF0E1F088234AF0EE0FFF1F5D
:1012C000BB1F661F771F881F91505040A9F79E3F94
:1012D000510570F060CFAACF5F3FECF3983EDCF38E
:1012E000869577956795B795F795E7959F5FC1F7D1
:1012F000FE2B880F911D9695879597F9089597FB7A
:10130000072E16F4009407D077FD09D00E94D90962
:1013100007FC05D03EF4909581959F4F08957095F8
:1013200061957F4F0895A1E21A2EAA1BBB1BFD01F8
:101330000DC0AA1FBB1FEE1FFF1FA217B307E407B4
:10134000F50720F0A21BB30BE40BF50B661F771F0C
:10135000881F991F1A9469F76095709580959095EC
:101360009B01AC01BD01CF010895052E97FB16F43A
:10137000009407D057FD0DD00E94930907FC09D0B7
:101380007EF490958095709561957F4F8F4F9F4F1C
:10139000089550954095309521953F4F4F4F5F4FA1
:1013A0000895B7FF0C94ED090E94ED09821B930B81
:1013B0000895AA1BBB1B51E107C0AA1FBB1FA6179C
:1013C000B70710F0A61BB70B881F991F5A95A9F7EE
:1013D00080959095BC01CD0108950E94F809A59FC4
:1013E000900DB49F900DA49F800D911D1124089520
:1013F000A29FB001B39FC001A39F01D0B29F700D07
:0C140000811D1124911D0895F894FFCF68
:04140C0006000100D5
:00000001FF
