:100000000C9434000C943E000C943E000C943E0082
:100010000C943E000C943E000C943E000C943E0068
:100020000C943E000C943E000C943E000C943E0058
:100030000C943E000C943E000C943E000C943E0048
:100040000C943E000C943E000C943E000C943E0038
:100050000C943E000C943E000C943E000C943E0028
:100060000C943E000C943E0011241FBECFEFD8E04C
:10007000DEBFCDBF0E944F000C9464000C940000C2
:100080008AB180668AB983EA84BD81E085BD16BCE9
:1000900018BC17BC089588BD089587BD08950E94B7
:1000A0004000C0E08C2F0E944B008C2F880F0E94D4
:1000B0004D00CF5F2FEF81EE94E0215080409040C3
:0C00C000E1F700C00000EECFF894FFCF85
:00000001FF
