S00D000053524630382E73726563C4
S11300000C9434000C9449000C9449000C9449005D
S11300100C9449000C9449000C9449000C94490038
S11300200C9449000C9449000C9449000C94490028
S11300300C9449000C9449000C9449000C94490018
S11300400C9449000C9449000C9449000C94490008
S11300500C9449000C9449000C9449000C944900F8
S11300600C9449000C94490011241FBECFEFD8E032
S1130070DEBFCDBF12E0A0E0B1E0E0EBF4E002C0EF
S113008005900D92A036B107D9F70E94B3000C94E5
S113009056020C940000CF93DF939B014150FB0167
S11300A0E40FF11D1082EAE0F0E00AC04150E901DA
S11300B0C40FD11DBF010E940C02805D8883CB0157
S11300C0442349F0009791F706C04150F901E40F29
S11300D0F11D808301C080E24111F7CFC901DF9196
S11300E0CF91089540E060E080E00E94090160E85B
S11300F075E280E090E00E94F00180E091E00E94CF
S1130100000281E191E00C940002CF93DF93CDB71C
S1130110DEB72A970FB6F894DEBF0FBECDBF61E5F8
S113012080E70E94B7002FEF83ED90E321508040D9
S11301309040E1F700C0000080E70E94E2004AE03E
S1130140BE016F5F7F4F0E944B0087E191E00E94E8
S113015000022FEF83ED90E3215080409040E1F7BF
S113016000C00000DCCF0E9472000E9485001F9333
S1130170CF93DF9300D0CDB7DEB7182F19826A83EF
S11301800E941501813019F08EE191E011C0812F98
S11301900E944701813019F08CE491E009C062E0CB
S11301A0CE0101960E947E01813021F080E891E029
S11301B00E9400020E942E010F900F90DF91CF91B8
S11301C01F9108951F93CF93DF9300D0CDB7DEB76F
S11301D0182F1A8219820E941501812F0E94320160
S11301E062E0CE0101960E9459010E942E0189818C
S11301F09A810F900F90DF91CF911F9108958111F3
S113020002C088E401C08CE08093B8001092B90069
S11302100895811103C0862F0C94FF00440F40936E
S1130220BA0084EC8093BC00089584EA8093BC00F7
S11302308091BC0087FFFCCF8091B900887F883013
S113024051F02091B900287F81E090E0203129F01D
S113025080E090E0089581E090E0089584E980933F
S1130260BC00089590E0880F991F81608093BB00C3
S113027084E88093BC008091BC0087FFFCCF909100
S1130280B900987F81E0903409F080E00895880FE8
S11302908093BB0084E88093BC008091BC0087FFFE
S11302A0FCCF9091B900987F81E0983109F080E00B
S11302B00895FC0194E824EC1BC0615019F02093CC
S11302C0BC0002C09093BC008091BC0087FFFCCFAF
S11302D08091BB0080838091B900887F803521F0B4
S11302E0883551F4611108C08091BB008183329636
S11302F06111E3CF81E0089580E00895FC0194E862
S11303000FC081918093BB009093BC008091BC008E
S113031087FFFCCF8091B900887F883229F461502F
S11303206111EFCF81E0089580E008958F929F924C
S1130330AF92BF92CF92DF92EF92FF924B015C019A
S11303409B01AC0164E0220F331F441F551F6A95C3
S1130350D1F7C12C74E2D72E74EFE72EF12CC7012C
S1130360B6010E942002DA01C9010197A109B1096D
S11303708F319105A105B10560F0892F9A2FAB2F1C
S1130380BB278093C50021502093C4001092C00065
S11303901EC0A501940183E0220F331F441F551F83
S11303A08A95D1F7C701B6010E942002DA01C9017A
S11303B00197A109B109892F9A2FAB2FBB278093ED
S11303C0C50021502093C40082E08093C000FF90B8
S11303D0EF90DF90CF90BF90AF909F908F90089553
S11303E00E94960188E98093C10086E08093C20050
S11303F008959091C00095FFFCCF8093C6000895A6
S1130400CF93DF93EC0102C00E94F901899181111D
S1130410FBCFDF91CF91089597FB072E16F400943C
S113042007D077FD09D00E94420207FC05D03EF4B4
S1130430909581959F4F0895709561957F4F08958C
S1130440A1E21A2EAA1BBB1BFD010DC0AA1FBB1FD4
S1130450EE1FFF1FA217B307E407F50720F0A21B46
S1130460B30BE40BF50B661F771F881F991F1A94B3
S113047069F760957095809590959B01AC01BD01DD
S1130480CF010895AA1BBB1B51E107C0AA1FBB1FC4
S1130490A617B70710F0A61BB70B881F991F5A950C
S11304A0A9F780959095BC01CD010895F894FFCFEC
S11304B0556E642061622067656874732121210A86
S11304C000746573740A00535246303A0900455269
S11304D0524F523A204645484C4552204245492005
S11304E053524653746172744D656173757265201D
S11304F0747769537461727428290A004552524F03
S1130500523A204645484C455220424549205352D0
S11305104653746172744D656173757265207477A6
S11305206953656C656374577269746528290A0098
S11305304552524F523A204645484C455220424576
S1130540492053524653746172744D6561737572D8
S11305506520747769577269746528290A004552C1
S1130560524F523A204645484C4552204245492074
S1130570535246417661696C61626C652074776997
S1130580537461727428290A004552524F523A201A
S11305904645484C455220424549205352464176EF
S11305A061696C61626C652074776953656C65631D
S11305B07457726974650A004552524F523A204684
S11305C045484C45522042454920535246417661A4
S11305D0696C61626C652074776957726974650A25
S11305E0004552524F523A204645484C455220420B
S11305F0454920535246417661696C61626C6520BD
S113060074776953656C656374526561640A0000AC
S9030000FC
