:100000000C9434000C943E000C943E000C943E0082
:100010000C943E000C943E000C943E000C943E0068
:100020000C943E000C943E000C943E000C943E0058
:100030000C943E000C943E000C943E000C943E0048
:100040000C943E000C943E000C943E000C943E0038
:100050000C943E000C943E000C943E000C943E0028
:100060000C943E000C943E0011241FBECFEFD8E04C
:10007000DEBFCDBF0E944F000C9460000C940000C6
:100080008AB180668AB983EA84BD81E085BD16BCE9
:1000900018BC17BC089588BD089587BD08950E94B7
:1000A0004000C0E08C2F0E944B008C2F0E944D001E
:1000B000CF5F87EA91E60197F1F700C00000F2CF29
:0400C000F894FFCFE2
:00000001FF
