:100000000C9434000C9449000C9449000C94490061
:100010000C9449000C9449000C9449000C9449003C
:100020000C9449000C9449000C9449000C9449002C
:100030000C9449000C9449000C9449000C9449001C
:100040000C9449000C9449000C9449000C9449000C
:100050000C9449000C9449000C9449000C944900FC
:100060000C9449000C94490011241FBECFEFD8E036
:10007000DEBFCDBF12E0A0E0B1E0E0EFF5E002C0EE
:1000800005900D92A835B107D9F70E9496000C94FF
:10009000F6020C94000040E060E080E00E949F01C6
:1000A00060E875E280E090E00E94B40280E091E0B8
:1000B0000E94C502089561E580E70E949A002FEF33
:1000C00083ED90E3215080409040E1F700C00000B4
:1000D00080E70E94C4008233910528F481E191E019
:1000E0000E94C50215C08F3F2FEF920729F480E4CC
:1000F00091E00E94C5020CC08536910528F083E688
:1001000091E00E94C50204C082E991E00E94C5020C
:100110008FEF93ED20E3815090402040E1F700C045
:10012000000061E580E70E949A00C9CF0E944B0061
:100130000E945B001F93CF93DF9300D0CDB7DEB753
:10014000182F19826A830E94AC01813019F00E9435
:10015000C60114C0812F0E94E001813019F00E9475
:10016000C6010CC062E0CE0101960E9431028130CE
:1001700019F00E94C60102C00E94C6010F900F90A4
:10018000DF91CF911F9108951F93CF93DF9300D0FC
:10019000CDB7DEB7182F93E0998392E09A830E943F
:1001A000AC01813049F00E94C60181EA91E00E94D1
:1001B000C5022FEF3FEFAFC0812F0E94E0018130D9
:1001C00049F00E94C6018FEA91E00E94C5022FEF1C
:1001D0003FEFA1C061E0CE0101960E943102813063
:1001E00049F00E94C6018DEB91E00E94C5022FEFFD
:1001F0003FEF91C00E94C6010E94AC01813049F0DE
:100200000E94C6018BEC91E00E94C5022FEF3FEFE8
:1002100082C0812F0E94CA01813049F00E94C6012C
:1002200089ED91E00E94C5022FEF3FEF74C061E0BD
:10023000CE0101960E94F301813049F00E94C6016F
:1002400087EE91E00E94C5022FEF3FEF64C00E944D
:10025000C6010E94AC01813049F00E94C60185EFC1
:1002600091E00E94C5022FEF3FEF55C0812F0E9401
:10027000E001813049F00E94C60183E092E00E94D3
:10028000C5022FEF3FEF47C061E0CE0102960E940A
:100290003102813049F00E94C60181E192E00E9462
:1002A000C5022FEF3FEF37C00E94C6010E94AC018C
:1002B000813049F00E94C6018FE192E00E94C502A0
:1002C0002FEF3FEF28C0812F0E94CA01813049F0F3
:1002D0000E94C6018DE292E00E94C5022FEF3FEF1F
:1002E0001AC061E0CE0102960E94F301813049F00C
:1002F0000E94C6018CE392E00E94C5022FEF3FEFFF
:100300000AC00E94C6018BE492E00E94C5023A81B5
:1003100020E08981282B822F932F0F900F90DF915F
:10032000CF911F910895811104C088E48093B80093
:1003300003C08CE08093B8001092B9000895811139
:1003400004C0862F0E9493010895440F4093BA0081
:1003500084EC8093BC00089584EA8093BC00ECEBAD
:10036000F0E080818823ECF78091B900887F8830A5
:1003700051F02091B900287F81E090E0203129F0F0
:1003800080E090E0089581E090E0089584E9809312
:10039000BC00089590E0880F991F81608093BB0096
:1003A00084E88093BC00ECEBF0E080818823ECF7DC
:1003B0009091B900987F81E0903409F080E0089531
:1003C000880F8093BB0084E88093BC00ECEBF0E0E6
:1003D00080818823ECF79091B900987F81E0983173
:1003E00009F080E008950F931F93CF93DF93DC0112
:1003F000662369F1ECEBF0E044EC34E80BEB10E041
:1004000089EB90E0615011F0408301C0308320817E
:100410002223ECF7E80128812C93EC012881287F26
:10042000203519F02835A9F40AC0E8012881119671
:100430002C93119712966111E5CF81E00DC06111E7
:100440000AC08091BB0011968C9381E005C081E0C9
:1004500003C080E001C080E0DF91CF911F910F9138
:100460000895CF93DF936623C9F0A82FB92F8BEBA4
:1004700090E0ECEBF0E034E849EB50E02D91EC013A
:100480002883308320812223ECF7EA012881287F0A
:10049000283231F4615091F781E003C081E001C05E
:1004A00080E0DF91CF910895CF92DF92EF92FF929B
:1004B0006B017C01DC01CB01880F991FAA1FBB1FB8
:1004C000880F991FAA1FBB1F9C01AD01220F331F6C
:1004D000441F551F220F331F441F551F60E074E255
:1004E00084EF90E00E94D402DA01C9010197A109CA
:1004F000B1098F319105A105B10560F0892F9A2FBF
:10050000AB2FBB278093C50021502093C4001092CD
:10051000C00025C0CC0CDD1CEE1CFF1CCC0CDD1C6F
:10052000EE1CFF1CA7019601220F331F441F551F0D
:1005300060E074E284EF90E00E94D402DA01C90125
:100540000197A109B109892F9A2FAB2FBB2780935F
:10055000C50021502093C40082E08093C000FF902A
:10056000EF90DF90CF9008950E94540288E9809325
:10057000C10086E08093C2000895E0ECF0E0908135
:1005800095FFFDCF8093C6000895CF93DF93EC01D4
:100590008881882331F021960E94BD0289918111C2
:1005A000FBCFDF91CF910895A1E21A2EAA1BBB1BAE
:1005B000FD010DC0AA1FBB1FEE1FFF1FA217B3072F
:1005C000E407F50720F0A21BB30BE40BF50B661F45
:1005D000771F881F991F1A9469F760957095809509
:1005E00090959B01AC01BD01CF010895F894FFCF18
:1005F000556E642061622067656874732121210A49
:10060000004D696E696D616C207A756C61657373FC
:100610006967656E2041627374616E6420756E74E3
:10062000657273636872697474656E2121210A00B2
:100630004665686C65722062656920646572204158
:10064000627374616E64736D657373756E67212177
:10065000210A004D6178696D616C207A756C616565
:1006600073736967656E2041627374616E6420758F
:100670006562657273636872697474656E212121A5
:100680000A0041627374616E64204F4B2121210A7C
:10069000004665686C65722062656920300A004614
:1006A00065686C65722062656920310A004665687C
:1006B0006C65722062656920320A004665686C6567
:1006C000722062656920330A004665686C65722095
:1006D00062656920340A004665686C65722062654F
:1006E0006920350A004665686C657220626569207C
:1006F000360A004665686C65722062656920370AB3
:10070000004665686C65722062656920380A00469B
:1007100065686C65722062656920390A0046656803
:100720006C6572206265692031300A004665686C2C
:100730006572206265692031310A004B65696E205F
:080740004665686C65720A0051
:00000001FF
